{
  "_format": "hh-sol-artifact-1",
  "contractName": "CertiChain",
  "sourceName": "contracts/CertiChain.sol",
  "abi": [
    {
      "inputs": [],
      "stateMutability": "nonpayable",
      "type": "constructor"
    },
    {
      "inputs": [
        {
          "internalType": "bytes32",
          "name": "_hash",
          "type": "bytes32"
        }
      ],
      "name": "burnCertificate",
      "outputs": [],
      "stateMutability": "nonpayable",
      "type": "function"
    },
    {
      "inputs": [
        {
          "internalType": "bytes32",
          "name": "",
          "type": "bytes32"
        }
      ],
      "name": "certificateHashes",
      "outputs": [
        {
          "internalType": "bool",
          "name": "",
          "type": "bool"
        }
      ],
      "stateMutability": "view",
      "type": "function"
    },
    {
      "inputs": [
        {
          "internalType": "bytes32",
          "name": "_hash",
          "type": "bytes32"
        }
      ],
      "name": "issueCertificate",
      "outputs": [],
      "stateMutability": "nonpayable",
      "type": "function"
    },
    {
      "inputs": [],
      "name": "owner",
      "outputs": [
        {
          "internalType": "address",
          "name": "",
          "type": "address"
        }
      ],
      "stateMutability": "view",
      "type": "function"
    },
    {
      "inputs": [
        {
          "internalType": "bytes32",
          "name": "_hash",
          "type": "bytes32"
        }
      ],
      "name": "verifyCertificate",
      "outputs": [
        {
          "internalType": "bool",
          "name": "",
          "type": "bool"
        }
      ],
      "stateMutability": "view",
      "type": "function"
    }
  ],
  "bytecode": "0x608060405234801561001057600080fd5b50336000806101000a81548173ffffffffffffffffffffffffffffffffffffffff021916908373ffffffffffffffffffffffffffffffffffffffff1602179055506104cc806100606000396000f3fe608060405234801561001057600080fd5b50600436106100575760003560e01c8063435a6c1b1461005c578063850c1768146100785780638da5cb5b146100a8578063a1f81824146100c6578063bedda47e146100e2575b600080fd5b61007660048036038101906100719190610334565b610112565b005b610092600480360381019061008d9190610334565b6101cf565b60405161009f919061037c565b60405180910390f35b6100b06101f9565b6040516100bd91906103d8565b60405180910390f35b6100e060048036038101906100db9190610334565b61021d565b005b6100fc60048036038101906100f79190610334565b6102d9565b604051610109919061037c565b60405180910390f35b60008054906101000a900473ffffffffffffffffffffffffffffffffffffffff1673ffffffffffffffffffffffffffffffffffffffff163373ffffffffffffffffffffffffffffffffffffffff16146101a0576040517f08c379a000000000000000000000000000000000000000000000000000000000815260040161019790610476565b60405180910390fd5b60006001600083815260200190815260200160002060006101000a81548160ff02191690831515021790555050565b60006001600083815260200190815260200160002060009054906101000a900460ff169050919050565b60008054906101000a900473ffffffffffffffffffffffffffffffffffffffff1681565b60008054906101000a900473ffffffffffffffffffffffffffffffffffffffff1673ffffffffffffffffffffffffffffffffffffffff163373ffffffffffffffffffffffffffffffffffffffff16146102ab576040517f08c379a00000000000000000000000000000000000000000000000000000000081526004016102a290610476565b60405180910390fd5b600180600083815260200190815260200160002060006101000a81548160ff02191690831515021790555050565b60016020528060005260406000206000915054906101000a900460ff1681565b600080fd5b6000819050919050565b610311816102fe565b811461031c57600080fd5b50565b60008135905061032e81610308565b92915050565b60006020828403121561034a576103496102f9565b5b60006103588482850161031f565b91505092915050565b60008115159050919050565b61037681610361565b82525050565b6000602082019050610391600083018461036d565b92915050565b600073ffffffffffffffffffffffffffffffffffffffff82169050919050565b60006103c282610397565b9050919050565b6103d2816103b7565b82525050565b60006020820190506103ed60008301846103c9565b92915050565b600082825260208201905092915050565b7f4f6e6c7920746865206f776e65722063616e2063616c6c20746869732066756e60008201527f6374696f6e2e0000000000000000000000000000000000000000000000000000602082015250565b60006104606026836103f3565b915061046b82610404565b604082019050919050565b6000602082019050818103600083015261048f81610453565b905091905056fea264697066735822122040d2dda5e8ac9f003fe5433bba0f30f3fd083ce6889a21a49c668f4f314e683364736f6c63430008180033",
  "linkReferences": {},
  "deployedLinkReferences": {}
}